{
  "_format": "hh-sol-artifact-1",
  "contractName": "PrivacyKYC",
  "sourceName": "contracts/PrivacyKYC.sol",
  "abi": [
    {
      "inputs": [],
      "stateMutability": "nonpayable",
      "type": "constructor"
    },
    {
      "anonymous": false,
      "inputs": [
        {
          "indexed": true,
          "internalType": "address",
          "name": "user",
          "type": "address"
        },
        {
          "indexed": false,
          "internalType": "uint256",
          "name": "timestamp",
          "type": "uint256"
        }
      ],
      "name": "KYCSubmitted",
      "type": "event"
    },
    {
      "anonymous": false,
      "inputs": [
        {
          "indexed": true,
          "internalType": "address",
          "name": "user",
          "type": "address"
        },
        {
          "indexed": false,
          "internalType": "bool",
          "name": "verified",
          "type": "bool"
        }
      ],
      "name": "KYCVerified",
      "type": "event"
    },
    {
      "inputs": [],
      "name": "admin",
      "outputs": [
        {
          "internalType": "address",
          "name": "",
          "type": "address"
        }
      ],
      "stateMutability": "view",
      "type": "function"
    },
    {
      "inputs": [
        {
          "internalType": "address",
          "name": "user",
          "type": "address"
        }
      ],
      "name": "getKYCData",
      "outputs": [
        {
          "internalType": "euint32",
          "name": "age",
          "type": "bytes32"
        },
        {
          "internalType": "euint8",
          "name": "nationality",
          "type": "bytes32"
        },
        {
          "internalType": "euint8",
          "name": "documentType",
          "type": "bytes32"
        },
        {
          "internalType": "ebool",
          "name": "isVerified",
          "type": "bytes32"
        },
        {
          "internalType": "uint256",
          "name": "submissionTime",
          "type": "uint256"
        }
      ],
      "stateMutability": "view",
      "type": "function"
    },
    {
      "inputs": [
        {
          "internalType": "address",
          "name": "user",
          "type": "address"
        }
      ],
      "name": "hasKYC",
      "outputs": [
        {
          "internalType": "bool",
          "name": "",
          "type": "bool"
        }
      ],
      "stateMutability": "view",
      "type": "function"
    },
    {
      "inputs": [
        {
          "internalType": "address",
          "name": "",
          "type": "address"
        }
      ],
      "name": "hasSubmitted",
      "outputs": [
        {
          "internalType": "bool",
          "name": "",
          "type": "bool"
        }
      ],
      "stateMutability": "view",
      "type": "function"
    },
    {
      "inputs": [
        {
          "internalType": "address",
          "name": "user",
          "type": "address"
        },
        {
          "internalType": "uint32",
          "name": "minAge",
          "type": "uint32"
        }
      ],
      "name": "isAgeAbove",
      "outputs": [
        {
          "internalType": "ebool",
          "name": "",
          "type": "bytes32"
        }
      ],
      "stateMutability": "nonpayable",
      "type": "function"
    },
    {
      "inputs": [
        {
          "internalType": "address",
          "name": "",
          "type": "address"
        }
      ],
      "name": "kycRecords",
      "outputs": [
        {
          "internalType": "euint32",
          "name": "age",
          "type": "bytes32"
        },
        {
          "internalType": "euint8",
          "name": "nationality",
          "type": "bytes32"
        },
        {
          "internalType": "euint8",
          "name": "documentType",
          "type": "bytes32"
        },
        {
          "internalType": "ebool",
          "name": "isVerified",
          "type": "bytes32"
        },
        {
          "internalType": "uint256",
          "name": "submissionTime",
          "type": "uint256"
        }
      ],
      "stateMutability": "view",
      "type": "function"
    },
    {
      "inputs": [],
      "name": "protocolId",
      "outputs": [
        {
          "internalType": "uint256",
          "name": "",
          "type": "uint256"
        }
      ],
      "stateMutability": "pure",
      "type": "function"
    },
    {
      "inputs": [
        {
          "internalType": "externalEuint32",
          "name": "encryptedAge",
          "type": "bytes32"
        },
        {
          "internalType": "externalEuint8",
          "name": "encryptedNationality",
          "type": "bytes32"
        },
        {
          "internalType": "externalEuint8",
          "name": "encryptedDocType",
          "type": "bytes32"
        },
        {
          "internalType": "bytes",
          "name": "inputProof",
          "type": "bytes"
        }
      ],
      "name": "submitKYC",
      "outputs": [],
      "stateMutability": "nonpayable",
      "type": "function"
    },
    {
      "inputs": [
        {
          "internalType": "address",
          "name": "user",
          "type": "address"
        },
        {
          "internalType": "bool",
          "name": "verified",
          "type": "bool"
        }
      ],
      "name": "verifyKYC",
      "outputs": [],
      "stateMutability": "nonpayable",
      "type": "function"
    }
  ],
  "bytecode": "0x608060405234801561000f575f80fd5b5061018a6100ae604080516080810182525f808252602082018190529181018290526060810191909152506040805160808101825273687820221192c5b662b25367f70076a37bc79b6c815273848b0066793bcc60346da1f49049357399b8d595602082015273a02cda4ca3a71d7c46997716f4283aa851c2881291810191909152731364cbbf2cdf5032c47d8226a6f6fbd2afcdacac606082015290565b80517f9e7b61f58c47dc699ac88507c4f5bb9f121c03808c5676a8078fe583e464970080546001600160a01b03199081166001600160a01b039384161790915560208301517f9e7b61f58c47dc699ac88507c4f5bb9f121c03808c5676a8078fe583e46497018054831691841691909117905560408301517f9e7b61f58c47dc699ac88507c4f5bb9f121c03808c5676a8078fe583e46497028054831691841691909117905560608301517f9e7b61f58c47dc699ac88507c4f5bb9f121c03808c5676a8078fe583e46497038054909216921691909117905550565b5f80546001600160a01b03191633179055610baa806101a85f395ff3fe608060405234801561000f575f80fd5b5060043610610090575f3560e01c80635249e862116100635780635249e862146101145780637eb606e81461013f578063ab47a2f9146101a2578063da1f12ab146101b5578063f851a440146101bd575f80fd5b80631ad3dc771461009457806324c44bf3146100a9578063388044b3146100cf578063474adb8f14610101575b5f80fd5b6100a76100a2366004610949565b6101e7565b005b6100bc6100b73660046109e9565b6103ab565b6040519081526020015b60405180910390f35b6100f16100dd366004610a26565b60026020525f908152604090205460ff1681565b60405190151581526020016100c6565b6100a761010f366004610a3f565b610414565b6100f1610122366004610a26565b6001600160a01b03165f9081526002602052604090205460ff1690565b61017a61014d366004610a26565b600160208190525f9182526040909120805491810154600282015460038301546004909301549192909185565b604080519586526020860194909452928401919091526060830152608082015260a0016100c6565b61017a6101b0366004610a26565b610530565b6127116100bc565b5f546101cf906001600160a01b031681565b6040516001600160a01b0390911681526020016100c6565b5f6102278684848080601f0160208091040260200160405190810160405280939291908181526020018383808284375f920191909152506105d592505050565b90505f6102698685858080601f0160208091040260200160405190810160405280939291908181526020018383808284375f920191909152506105e292505050565b90505f6102ab8686868080601f0160208091040260200160405190810160405280939291908181526020018383808284375f920191909152506105e292505050565b90506040518060a001604052808481526020018381526020018281526020016102d35f6105ef565b815242602091820152335f9081526001808352604080832085518155858501518184015585820151600280830191909155606087015160038301556080909601516004909101559390925291909120805460ff1916909117905561033683610610565b5061034082610610565b5061034a81610610565b50610355833361061f565b50610360823361061f565b5061036b813361061f565b5060405142815233907f2c3dea8db96f9d4588bb336e6b5c792bfaa97ca6516c306e79447561879425229060200160405180910390a25050505050505050565b6001600160a01b0382165f9081526002602052604081205460ff166103eb5760405162461bcd60e51b81526004016103e290610a6d565b60405180910390fd5b6001600160a01b0383165f9081526001602052604090205461040d9083610631565b9392505050565b5f546001600160a01b0316331461045a5760405162461bcd60e51b815260206004820152600a60248201526927b7363c9030b236b4b760b11b60448201526064016103e2565b6001600160a01b0382165f9081526002602052604090205460ff166104915760405162461bcd60e51b81526004016103e290610a6d565b61049a816105ef565b6001600160a01b0383165f9081526001602052604090206003018190556104c090610610565b506001600160a01b0382165f908152600160205260409020600301546104e6908361061f565b50816001600160a01b03167f7a02eb9b107b2ab713e88c3cd7ac538e5c21b689d0f1b1f22367578b28fc5d0982604051610524911515815260200190565b60405180910390a25050565b6001600160a01b0381165f90815260026020526040812054819081908190819060ff1661056f5760405162461bcd60e51b81526004016103e290610a6d565b505050506001600160a01b03919091165f90815260016020818152604092839020835160a0810185528154808252938201549281018390526002820154948101859052600382015460608201819052600490920154608090910181905292959194509190565b5f61040d83836004610655565b5f61040d83836002610655565b5f61060a826105fe575f610601565b60015b60ff165f610762565b92915050565b5f61061b823061080c565b5090565b5f61062a838361080c565b5090919050565b5f82610643576106405f610882565b92505b61040d8363ffffffff84166001610894565b7f9e7b61f58c47dc699ac88507c4f5bb9f121c03808c5676a8078fe583e46497015460405163196d0b9b60e01b81525f915f80516020610b55833981519152916001600160a01b039091169063196d0b9b906106bb908890339089908990600401610ab8565b6020604051808303815f875af11580156106d7573d5f803e3d5ffd5b505050506040513d601f19601f820116820180604052508101906106fb9190610b29565b8154604051630f8e573b60e21b8152600481018390523360248201529193506001600160a01b031690633e395cec906044015f604051808303815f87803b158015610744575f80fd5b505af1158015610756573d5f803e3d5ffd5b50505050509392505050565b7f9e7b61f58c47dc699ac88507c4f5bb9f121c03808c5676a8078fe583e464970154604051639cd07acb60e01b81525f915f80516020610b55833981519152916001600160a01b0390911690639cd07acb906107c49087908790600401610b40565b6020604051808303815f875af11580156107e0573d5f803e3d5ffd5b505050506040513d601f19601f820116820180604052508101906108049190610b29565b949350505050565b5f5f80516020610b558339815191528054604051635ca4b5b160e11b8152600481018690526001600160a01b03858116602483015292935091169063b9496b62906044015f604051808303815f87803b158015610867575f80fd5b505af1158015610879573d5f803e3d5ffd5b50505050505050565b5f61060a8263ffffffff166004610762565b5f8082156108a75750600160f81b6108aa565b505f5b5f5f80516020610b558339815191526001810154604051631391547f60e01b815260048101899052602481018890526001600160f81b0319851660448201529192506001600160a01b031690631391547f906064016020604051808303815f875af115801561091b573d5f803e3d5ffd5b505050506040513d601f19601f8201168201806040525081019061093f9190610b29565b9695505050505050565b5f805f805f6080868803121561095d575f80fd5b853594506020860135935060408601359250606086013567ffffffffffffffff80821115610989575f80fd5b818801915088601f83011261099c575f80fd5b8135818111156109aa575f80fd5b8960208285010111156109bb575f80fd5b9699959850939650602001949392505050565b80356001600160a01b03811681146109e4575f80fd5b919050565b5f80604083850312156109fa575f80fd5b610a03836109ce565b9150602083013563ffffffff81168114610a1b575f80fd5b809150509250929050565b5f60208284031215610a36575f80fd5b61040d826109ce565b5f8060408385031215610a50575f80fd5b610a59836109ce565b915060208301358015158114610a1b575f80fd5b60208082526011908201527027379025aca19039bab136b4b9b9b4b7b760791b604082015260600190565b60548110610ab457634e487b7160e01b5f52602160045260245ffd5b9052565b8481525f602060018060a01b03861660208401526080604084015284518060808501525f5b81811015610af95786810183015185820160a001528201610add565b505f60a0828601015260a0601f19601f83011685010192505050610b206060830184610a98565b95945050505050565b5f60208284031215610b39575f80fd5b5051919050565b8281526040810161040d6020830184610a9856fe9e7b61f58c47dc699ac88507c4f5bb9f121c03808c5676a8078fe583e4649700a264697066735822122028a4ede35a1a2d0387e829bf336f31a2cebaa0a291ad15202f8e70cf9d2be07d64736f6c63430008180033",
  "linkReferences": {},
  "deployedLinkReferences": {}
}